S017000041746D656C5F70726F6A6563745F312E7372656334
S11300000C942A000C9434000C9434000C943400A6
S11300100C9434000C9434000C9434000C9434008C
S11300200C9434000C9434000C9434000C9434007C
S11300300C9434000C9434000C9434000C9434006C
S11300400C9434000C9434000C9434000C9434005C
S11300500C94340011241FBECFE5D4E0DEBFCDBF25
S11300600E9436000C945C000C9400008FE08ABB64
S113007081E08BBB2FE986E891E0215080409040DD
S1130080E1F700C0000083E08BBB2FE986E891E034
S1130090215080409040E1F700C0000087E08BBB16
S11300A02FE986E891E0215080409040E1F700C0BC
S10F00B000008FE08BBBDCCFF894FFCF86
S9030000FC
