:100000000C942A000C943C000C943C000C943C0092
:100010000C943C000C943C000C943C000C943C0070
:100020000C943C000C943C000C943C000C943C0060
:100030000C943C000C943C000C943C000C943C0050
:100040000C943C000C943C000C943C000C943C0040
:100050000C943C0011241FBECFE5D4E0DEBFCDBF21
:1000600020E0A0E6B0E001C01D92A136B207E1F7A2
:100070000E943E000C9459000C9400001ABA8FEFB5
:1000800084BB86B1806886B986B1836086B987B142
:10009000806287B987B1816087B986B1806486B98B
:1000A0003699FECF85B1809360008091600085BB5A
:0600B000F4CFF894FFCF2D
:00000001FF
