S016000073687574746C655F636F636B5F432E7372656364
S11300000C9434000C9451000C9451000C94510045
S11300100C9451000C9451000C9451000C94510018
S11300200C9451000C9451000C9451000C94510008
S11300300C9451000C9451000C9451000C945100F8
S11300400C9451000C9451000C9451000C945100E8
S11300500C9451000C9451000C9451000C945100D8
S11300600C9451000C94510011241FBECFEFD8E022
S1130070DEBFCDBF11E0A0E0B1E0EEEDF2E002C0E2
S113008005900D92A432B107D9F721E0A4E2B1E0C2
S113009001C01D92A732B207E1F70E94F0000C9450
S11300A06D010C9400009BB19F70282F207F922B30
S11300B09BB99BB19E7F9BB99BB192609BB933E086
S11300C03A95F1F700009BB19D7F9BB9E3EFF1E016
S11300D03197F1F700C000002BB1F0E18F9FC00110
S11300E01124922F9F70892B8BB98BB182608BB9AD
S11300F033E03A95F1F700008BB18D7F8BB987E837
S113010093E10197F1F700C0000008958FEF8AB9D9
S11301108BE792E90197F1F700C0000082E00E94AA
S1130120530088E20E9453008CE00E94530086E052
S11301300E94530081E00E94530087E893E10197F5
S1130140F1F700C00000089581E00E94530087E8A1
S113015093E10197F1F700C0000080E80E9453008A
S11301600895FC0160E070E034C08BB18F70907F23
S1130170982B9BB98BB181608BB98BB182608BB9A1
S113018083E08A95F1F700008BB18D7F8BB983EF03
S113019091E00197F1F700C000004BB19C9180E120
S11301A0989F90011124942F9F70292B2BB99BB1F8
S11301B092609BB993E09A95F1F700009BB19D7F03
S11301C09BB987E893E10197F1F700C000006F5FE6
S11301D07F4FDF01A60FB71F9C919111C6CF0895E1
S11301E08FEF84B917B88AB984B90E94860080E079
S11301F091E00E94B1002FE38DE093E02150804014
S11302009040E1F700C000000E94A4008CE091E05F
S11302100E94B1002FE38DE093E021508040904094
S1130220E1F700C000000E94A40015B8309B52C042
S1130230CAE7D0E085E8888385E280937C0084B5B2
S1130240896084BD84B5806C84BD85B5856085BDB9
S113025082E191E00E94B1002FE38DE093E0215010
S113026080409040E1F700C0000085B18B7F85B9E4
S113027085B1816085B985B1886085B92FE387E749
S11302809BE1215080409040E1F700C0000085B11F
S1130290877F85B985B1816085B985B1846085B969
S11302A02FE78AE196E0215080409040E1F700C0BA
S11302B000000E94A40088818064888380917A0071
S11302C086FDFCCF809179008093260180912601E0
S11102D087BDACCF86B186B1A9CFF894FFCF1D
S11302DE48656C6C6F207573657220004155424100
S11302EE49004665656465722064656C61795F31A9
S10702FE3073000055
S9030000FC
