:100000000C942A000C9454000C9434000C9434008A
:100010000C9434000C9434000C9434000C94340090
:100020000C9434000C9434000C9434000C94340080
:100030000C9434000C9434000C9434000C94340070
:100040000C9434000C9434000C9434000C94340060
:100050000C94340011241FBECFE5D4E0DEBFCDBF29
:100060000E9436000C9466000C9400008AB38160F4
:100070008ABB87B3816087BB81B38B7F81BB82B32F
:10008000846082BB85B7826085BF8BB780648BBF7D
:1000900078949BB381E089278BBB87EA91E601972F
:1000A000F1F700C00000F5CF1F920F920FB60F922C
:1000B00011248F939F9398B381E0892788BB9F91E8
:1000C0008F910F900FBE0F901F901895F894FFCF4F
:00000001FF
