:100000000C942A000C9434000C9434000C943400AA
:100010000C9434000C9434000C9434000C94340090
:100020000C9434000C9434000C9434000C94340080
:100030000C9434000C9434000C9434000C94340070
:100040000C9434000C9434000C9434000C94340060
:100050000C94340011241FBECFE5D4E0DEBFCDBF29
:100060000E9436000C944F000C94000084B3816011
:1000700084BB87E689B910BC88E18AB980B58660FF
:1000800080BD5F9BFECF8CB18E3419F495B3916027
:1000900095BB8634B1F785B38E7F85BBF2CFF894DC
:0200A000FFCF90
:00000001FF
