:100000000C942A000C9434000C9434000C943400AA
:100010000C9434000C9434000C9434000C94340090
:100020000C9434000C9434000C9434000C94340080
:100030000C9434000C9434000C9434000C94340070
:100040000C9434000C9434000C9434000C94340060
:100050000C94340011241FBECFE5D4E0DEBFCDBF29
:100060000E9436000C9452000C94000014BA81E0F7
:100070008ABB85BB9899FECF81E08BBB2FE38DE0D7
:1000800093E0215080409040E1F700C000001BBA8F
:100090002FE38DE093E0215080409040E1F700C0D5
:0800A0000000E8CFF894FFCF47
:00000001FF
