:100000000C942A000C9434000C9434000C943400AA
:100010000C9434000C9434000C9434000C94340090
:100020000C9434000C9434000C9434000C94340080
:100030000C9434000C9434000C9434000C94340070
:100040000C9434000C9434000C9434000C94340060
:100050000C94340011241FBECFE5D4E0DEBFCDBF29
:100060000E9436000C9459000C94000084B38E7FDB
:1000700084BB84B38D7F84BB85B3836085BB8AB327
:10008000806E8ABB989909C08BB380628BBB8BB39F
:1000900080648BBB8BB38F778BBB9999F3CF8BB37A
:1000A0008F7D8BBB8BB38F7B8BBB8BB380688BBB04
:0600B000E9CFF894FFCF38
:00000001FF
