:100000000C942A000C9434000C9434000C943400AA
:100010000C9434000C9434000C9434000C94340090
:100020000C9434000C9434000C9434000C94340080
:100030000C9434000C9434000C9434000C94340070
:100040000C9434000C9434000C9434000C94340060
:100050000C94340011241FBECFE5D4E0DEBFCDBF29
:100060000E9436000C94A7000C9400008FEF8ABB0E
:100070008FE38BBB2FE38DE093E0215080409040D5
:10008000E1F700C0000080E38BBB2FE38DE093E03D
:10009000215080409040E1F700C000008BE58BBB11
:1000A0002FE38DE093E0215080409040E1F700C0C5
:1000B00000008FE48BBB2FE38DE093E02150804064
:1000C0009040E1F700C0000086E68BBB2FE38DE097
:1000D00093E0215080409040E1F700C000008DE6A1
:1000E0008BBB2FE38DE093E0215080409040E1F7FF
:1000F00000C000008DE78BBB2FE38DE093E0215023
:1001000080409040E1F700C0000087E08BBB2FE308
:100110008DE093E0215080409040E1F700C0000066
:100120008FEF8BBB2FE38DE093E021508040904018
:10013000E1F700C000008FE68BBB2FE38DE093E07A
:10014000215080409040E1F700C0000091CFF8942A
:02015000FFCFDF
:00000001FF
