S012000055534152545F73656E642E737265637A
S11300000C942A000C9434000C9434000C943400A6
S11300100C9434000C9434000C9434000C9434008C
S11300200C9434000C9434000C9434000C9434007C
S11300300C9434000C9434000C9434000C9434006C
S11300400C9434000C9434000C9434000C9434005C
S11300500C94340011241FBECFE5D4E0DEBFCDBF25
S11300600E9436000C9463000C94000084B3867FD5
S113007084BB85B3896085BB87E689B910BC88E1F8
S11300808AB980B5866080BD98990DC05D9BFECF0E
S11300908EE48CB92FEF85EA9EE021508040904099
S11300A0E1F700C000009B99EFCF5D9BFECF86E493
S11300B08CB92FEF85EA9EE0215080409040E1F713
S10D00C000C00000E1CFF894FFCF68
S9030000FC
