:100000000C9434000C9446000C9446000C9446006A
:100010000C9446000C9446000C9446000C94460048
:100020000C9446000C9446000C9446000C94460038
:100030000C9446000C9446000C9446000C94460028
:100040000C9446000C9446000C9446000C94460018
:100050000C9446000C9446000C9446000C94460008
:100060000C9446000C94460011241FBECFEFD8E03C
:10007000DEBFCDBF21E0A0E0B1E001C01D92A03005
:10008000B207E1F70E9448000C9468000C9400004D
:100090008FEF8AB984B915B885E880937A0085E234
:1000A00080937C0084B5896084BD84B5806C84BDF8
:1000B00085B5856085BDEAE7F0E080818064808356
:1000C00080917A0086FDFCCF8091790087BDF3CFC7
:0400D000F894FFCFD2
:00000001FF
