:100000000C942A000C9434000C9434000C943400AA
:100010000C9434000C9434000C9434000C94340090
:100020000C9434000C9434000C9434000C94340080
:100030000C9434000C9434000C9434000C94340070
:100040000C9434000C9434000C9434000C94340060
:100050000C94340011241FBECFE5D4E0DEBFCDBF29
:100060000E9436000C9450000C9400008FEF8ABB65
:1000700080E013C021E030E0082E02C0220F331FC1
:100080000A94E2F72BBB2FE936E891E0215030408B
:100090009040E1F700C000008F5F883058F3E8CF50
:0400A000F894FFCF02
:00000001FF
