S01B000055534152545F73656E645F66756E6374696F6E2E73726563AC
S11300000C942A000C943F000C943F000C943F0085
S11300100C943F000C943F000C943F000C943F0060
S11300200C943F000C943F000C943F000C943F0050
S11300300C943F000C943F000C943F000C943F0040
S11300400C943F000C943F000C943F000C943F0030
S11300500C943F0011241FBECFE5D4E0DEBFCDBF1A
S113006010E0A0E6B0E0E8EBF1E002C005900D92EC
S1130070A636B107D9F70E946B000C94DA000C94F1
S1130080000060E070E08EEC92E40E94740069B9B4
S113009070BD88E18AB980B5866080BD08955D9B96
S11300A0FECF8CB90895CF93DF93EC0103C0219662
S11300B00E944F0088818111FACF0E944F002FEFD8
S11300C083EC99E0215080409040E1F700C00000AB
S11300D0DF91CF91089580E895E20E94410080E687
S11300E090E00E945300FBCF0E94B900A8F19E57F4
S11300F0B0F1985160F039F1983070F5092E9927D4
S1130100660F771F881F991F0A94D1F71CC0BB275D
S1130110993F4CF4B111B1E0B62B672F782F8827A3
S1130120985FB1F708C0869577956795B79508F4F9
S1130130B1609395C1F7BB0F30F411F460FF03C0B5
S11301406F5F7F4F8F4F3EF49095809570956195CA
S11301507F4F8F4F9F4F089568940C94D4000C9454
S1130160D30057FD9058440F551F59F05F3F71F06D
S11301704795880F97FB991F61F09F3F79F087950A
S11301800895121613061406551FF2CF4695F1DF93
S113019008C0161617061806991FF1CF8695710523
S11301A0610508940895E894BB2766277727CB0157
S10B01B097F90895F894FFCFBC
S10901B8415542414900DB
S9030000FC
